{
  "abi": [
    {
      "inputs": [],
      "stateMutability": "nonpayable",
      "type": "constructor"
    },
    {
      "inputs": [
        {
          "internalType": "address",
          "name": "_sushiPair",
          "type": "address"
        },
        {
          "internalType": "address",
          "name": "_uniPool",
          "type": "address"
        },
        {
          "internalType": "address",
          "name": "_token",
          "type": "address"
        },
        {
          "internalType": "bool",
          "name": "sushiZeroForOne",
          "type": "bool"
        },
        {
          "internalType": "bool",
          "name": "uniZeroForOne",
          "type": "bool"
        },
        {
          "internalType": "int256",
          "name": "buyAmount",
          "type": "int256"
        },
        {
          "internalType": "uint160",
          "name": "uniSqrtPriceLimitX96",
          "type": "uint160"
        }
      ],
      "name": "execute",
      "outputs": [
        {
          "internalType": "uint256",
          "name": "",
          "type": "uint256"
        }
      ],
      "stateMutability": "nonpayable",
      "type": "function"
    },
    {
      "inputs": [],
      "name": "liquidate",
      "outputs": [],
      "stateMutability": "nonpayable",
      "type": "function"
    }
  ],
  "bytecode": {
    "object": "0x608060405234801561001057600080fd5b50600080546001600160a01b031990811633179091556001805490911673c02aaa39b223fe8d0a0e5c4f27ead9083c756cc217905561055e806100546000396000f3fe608060405234801561001057600080fd5b50600436106100365760003560e01c806328a070251461003b578063a809879514610045575b600080fd5b61004361006a565b005b61005861005336600461043a565b610155565b60405190815260200160405180910390f35b6001546000546040516370a0823160e01b81523060048201526001600160a01b039283169263a9059cbb92169083906370a0823190602401602060405180830381865afa1580156100bf573d6000803e3d6000fd5b505050506040513d601f19601f820116820180604052508101906100e391906104c7565b6040516001600160e01b031960e085901b1681526001600160a01b03909216600483015260248201526044016020604051808303816000875af115801561012e573d6000803e3d6000fd5b505050506040513d601f19601f8201168201806040525081019061015291906104e0565b50565b600080546001600160a01b031633146101a35760405162461bcd60e51b815260206004820152600c60248201526b1d5b985d5d1a1bdc9a5e995960a21b604482015260640160405180910390fd5b604051630251596160e31b81523060048201528415156024820152604481018490526001600160a01b03838116606483015260a06084830152600060a483015287918a918a919082169063128acb089060c40160408051808303816000875af1158015610214573d6000803e3d6000fd5b505050506040513d601f19601f820116820180604052508101906102389190610504565b5050816001600160a01b031663022c0d9f896102555760006102bd565b6040516370a0823160e01b81523060048201526001600160a01b038616906370a0823190602401602060405180830381865afa158015610299573d6000803e3d6000fd5b505050506040513d601f19601f820116820180604052508101906102bd91906104c7565b8a61032f576040516370a0823160e01b81523060048201526001600160a01b038716906370a0823190602401602060405180830381865afa158015610306573d6000803e3d6000fd5b505050506040513d601f19601f8201168201806040525081019061032a91906104c7565b610332565b60005b6040516001600160e01b031960e085901b16815260048101929092526024820152306044820152608060648201526000608482015260a401600060405180830381600087803b15801561038457600080fd5b505af1158015610398573d6000803e3d6000fd5b50506001546040516370a0823160e01b81523060048201526001600160a01b0390911692506370a082319150602401602060405180830381865afa1580156103e4573d6000803e3d6000fd5b505050506040513d601f19601f8201168201806040525081019061040891906104c7565b9b9a5050505050505050505050565b6001600160a01b038116811461015257600080fd5b801515811461015257600080fd5b600080600080600080600060e0888a03121561045557600080fd5b873561046081610417565b9650602088013561047081610417565b9550604088013561048081610417565b945060608801356104908161042c565b935060808801356104a08161042c565b925060a0880135915060c08801356104b781610417565b8091505092959891949750929550565b6000602082840312156104d957600080fd5b5051919050565b6000602082840312156104f257600080fd5b81516104fd8161042c565b9392505050565b6000806040838503121561051757600080fd5b50508051602090910151909290915056fea2646970667358221220abf2e61969006361c1a5f59e8841029a8e8081c83290f790a9bb05c7fafeb1d364736f6c634300080e0033",
    "linkReferences": {}
  },
  "methodIdentifiers": {
    "execute(address,address,address,bool,bool,int256,uint160)": "a8098795",
    "liquidate()": "28a07025"
  },
  "id": 0
}