{
  "abi": [
    {
      "inputs": [],
      "stateMutability": "nonpayable",
      "type": "constructor"
    },
    {
      "inputs": [
        {
          "internalType": "address",
          "name": "_uniPool",
          "type": "address"
        },
        {
          "internalType": "address",
          "name": "_sushiPool",
          "type": "address"
        },
        {
          "internalType": "bool",
          "name": "uniZeroForOne",
          "type": "bool"
        },
        {
          "internalType": "int256",
          "name": "buyAmount",
          "type": "int256"
        },
        {
          "internalType": "uint160",
          "name": "sqrtPriceLimitX96",
          "type": "uint160"
        }
      ],
      "name": "execute",
      "outputs": [
        {
          "internalType": "uint256",
          "name": "",
          "type": "uint256"
        }
      ],
      "stateMutability": "nonpayable",
      "type": "function"
    },
    {
      "inputs": [],
      "name": "liquidate",
      "outputs": [],
      "stateMutability": "nonpayable",
      "type": "function"
    }
  ],
  "bytecode": {
    "object": "0x608060405234801561001057600080fd5b50600080546001600160a01b031990811633179091556001805490911673c02aaa39b223fe8d0a0e5c4f27ead9083c756cc217905561041a806100546000396000f3fe608060405234801561001057600080fd5b50600436106100365760003560e01c806328a070251461003b5780635401767014610045575b600080fd5b61004361006a565b005b61005861005336600461031b565b610155565b60405190815260200160405180910390f35b6001546000546040516370a0823160e01b81523060048201526001600160a01b039283169263a9059cbb92169083906370a0823190602401602060405180830381865afa1580156100bf573d6000803e3d6000fd5b505050506040513d601f19601f820116820180604052508101906100e39190610383565b6040516001600160e01b031960e085901b1681526001600160a01b03909216600483015260248201526044016020604051808303816000875af115801561012e573d6000803e3d6000fd5b505050506040513d601f19601f82011682018060405250810190610152919061039c565b50565b600080546001600160a01b0316331461016d57600080fd5b604051630251596160e31b81523060048201528415156024820152604481018490526001600160a01b03838116606483015260a06084830152600060a483018190528892889282919085169063128acb089060c40160408051808303816000875af11580156101e0573d6000803e3d6000fd5b505050506040513d601f19601f8201168201806040525081019061020491906103c0565b60405163022c0d9f60e01b81526000600482018190526024820183905230604483015260806064830152608482015291935091506001600160a01b0384169063022c0d9f9060a401600060405180830381600087803b15801561026657600080fd5b505af115801561027a573d6000803e3d6000fd5b50506001546040516370a0823160e01b81523060048201526001600160a01b0390911692506370a082319150602401602060405180830381865afa1580156102c6573d6000803e3d6000fd5b505050506040513d601f19601f820116820180604052508101906102ea9190610383565b9a9950505050505050505050565b6001600160a01b038116811461015257600080fd5b801515811461015257600080fd5b600080600080600060a0868803121561033357600080fd5b853561033e816102f8565b9450602086013561034e816102f8565b9350604086013561035e8161030d565b9250606086013591506080860135610375816102f8565b809150509295509295909350565b60006020828403121561039557600080fd5b5051919050565b6000602082840312156103ae57600080fd5b81516103b98161030d565b9392505050565b600080604083850312156103d357600080fd5b50508051602090910151909290915056fea2646970667358221220727f215023c94e6d0392caed61a33de4b832445b485a3d81d3edeac30871838164736f6c634300080e0033",
    "linkReferences": {}
  },
  "methodIdentifiers": {
    "execute(address,address,bool,int256,uint160)": "54017670",
    "liquidate()": "28a07025"
  },
  "id": 0
}